:020000040000FA
:0600000041EF03F01200C5
:020006000000F8
:0600080007EF00F01200FA
:02000E00DACF47
:10001000E4FFE2CFDAFFE652F2A407D000016A2B38
:10002000000E6B23060ED66EF294E552E5CFDAFF92
:100030001100D9CFE6FFE1CFD9FF0E0EE126B4D9EA
:10004000E6D9D38AF28CF28AF292C10ED56E060EF0
:10005000D66E81B004D0080EDB6A090EDB6A81B26D
:1000600007D0010EF36E080EF3CFDBFF090EDB6A3B
:1000700081B407D0020EF36E080EF3CFDBFF090E3A
:10008000DB6AD950080FE96EDACFEAFFEE50ED10C7
:100090001CE1E66A800EE66E18DAE552E552FD0EC6
:1000A000E66E050EE66E8ED9E552E552020EF36E4F
:1000B0000A0EF3CFDBFF0B0EDB6A060EF36E0C0E9F
:1000C000F3CFDBFF0D0EDB6A59D0D950080FE96E74
:1000D000DACFEAFF010EEE1801E1ED501CE1E66A0D
:1000E000800EE66EF2D9E552E552F30EE66E050E8D
:1000F000E66E68D9E552E552030EF36E0A0EF3CFB1
:10010000DBFF0B0EDB6A070EF36E0C0EF3CFDBFF8B
:100110000D0EDB6A33D0D950080FE96EDACFEAFF53
:10012000020EEE1801E1ED501CE1E66A800EE66E6B
:10013000CCD9E552E552E90EE66E050EE66E42D9DF
:10014000E552E552020EF36E0A0EF3CFDBFF0B0E03
:10015000DB6A030EF36E0C0EF3CFDBFF0D0EDB6AD2
:100160000DD0E66A800EE66EB0D9E552E552E30E98
:10017000E66E050EE66E26D9E552E5525DEC03F01B
:1001800058EC03F0000901E0FBD74FEC03F0F3CF8C
:10019000DEFFF4CFDDFF050E086E096ADECF0DF03D
:1001A000DDCF0EF0CCEC02F006C014F007C015F065
:1001B000640E1502F3CF15F01402F3CF14F0F450CF
:1001C00015260A0E0F0B05E0D89015321432E806FA
:1001D000FBE1020E14C0DBFF030E15C0DBFF0A0EAD
:1001E000146E156A020EDBCF08F0030EDBCF09F0A8
:1001F00014C00DF015C00EF01BEC03F0060E08C085
:10020000DBFF070E09C0DBFF020EDBCF14F0030E8D
:10021000DBCF15F00A0E0D6E0E6A14C008F015C083
:1002200009F01BEC03F004C014F005C015F0040E37
:1002300014C0DBFF050E15C0DBFFE66AC00EE66EDC
:1002400044D9E552E552060EDBCFE6FF070EDBCFC1
:10025000E6FF21D9E552E552040EDBCFE6FF050E9D
:10026000DBCFE6FF18D9E552E552D40EE66E050E57
:10027000E66EA8D8E552E552060EDBCF14F0070E65
:10028000DBCF15F00A0EDBCF16F00B0EDBCF17F02D
:100290001450165C1550175802E2818833D0060EB0
:1002A000DBCF14F0070EDBCF15F00A0EDB5014186D
:1002B00003E10B0EDB50151824E1040EDBCF16F022
:1002C000050EDBCF17F00C0EDBCF18F00D0EDBCFD9
:1002D00019F01650185C1750195813E28188050E52
:1002E000E66E04EC03F0E5528198050EE66E04EC30
:1002F00003F0E55281880A0EE66E04EC03F0E55245
:1003000001D08198060EDBCF14F0070EDBCF15F07D
:100310000A0EDB50141803E10B0EDB5015181CE11C
:10032000040EDBCF16F0050EDBCF17F00C0EDBCF83
:1003300018F00D0EDBCF19F01850165C1950175835
:100340000BE2E80E00016A1902E1030E6B1903E1EA
:1003500081766A6B6B6B1DD0060EDBCF14F0070E37
:10036000DBCF15F00A0EDBCF16F00B0EDBCF17F04C
:100370001650145C175015580BE2E80E00016A196C
:1003800002E1030E6B1903E181766A6B6B6B01D09E
:1003900081965FD60E0EE15C02E2E16AE552E16E03
:1003A000E552E7CFD9FF1200070E936E956AFC0E57
:1003B000946E800E926E010EC26E0B0EC16EB60E62
:1003C000C06E1200D9CFE6FFE1CFD9FFFD0EDBCF23
:1003D000F6FFFE0EDBCFF7FF0800F55014E0010E2C
:1003E000E66EFD0EDBCFF6FFFE0EDBCFF7FF08005B
:1003F000F550E66E6AD8E552E552FD0EDB2AFE0E98
:1004000001E3DB2AE3D7E552E7CFD9FF1200D9CFCA
:10041000E6FFE1CFD9FF050EE126DE52380EDD6E94
:100420000C0EF36E020EF3CFDBFF060EF36E030E1F
:10043000F3CFDBFF040EDB6ADF6ADFCF14F0040EBC
:10044000E76E1418E8AE02D0E73402D0E750145C2F
:1004500018E2E66AD950010F146EDACF15F0DFCF3B
:1004600016F0176A16BE176814501624E96E155058
:100470001720EA6EEF50E66E28D8E552E552DF2AE3
:10048000DCD7050EE15C02E2E16AE552E16EE5527D
:10049000E7CFD9FF1200D9CFE6FFE1CFD9FFE6526F
:1004A000FD0EDBCF14F0FE0EDBCF15F0300E142462
:1004B000DF6E010EE66EDFCFE6FF07D8E552E552AC
:1004C000E552E552E7CFD9FF1200D9CFE6FFE1CFE1
:1004D000D9FFFD0EDB50E8B08280E8A08290FE0ECE
:1004E000DB50836E8282050EE66E04EC03F0E5526B
:0A04F0008292E552E7CFD9FF120017
:0604FA00060EF66E000E76
:10050000F76E000EF86E00010900F550656F0900E6
:10051000F550666F03E1656701D03DD00900F550E5
:10052000606F0900F550616F0900F550626F0900B6
:100530000900F550E96E0900F550EA6E090009005E
:100540000900F550636F0900F550646F0900090058
:10055000F6CF67F0F7CF68F0F8CF69F060C0F6FF2C
:1005600061C0F7FF62C0F8FF0001635302E164530A
:1005700007E00900F550EE6E6307F8E26407F9D76B
:1005800067C0F6FF68C0F7FF69C0F8FF00016507A4
:08059000000E665BBFD71200EC
:0805980008C012F008500D022A
:1005A000F4CF07F0F3CF06F009500E02F4CF09F0B4
:1005B000F3CF08F00D02F3500726F4500822E86A42
:1005C000092212500E02F3500726F4500822E86A5E
:0405D0000922000CF0
:0C05D4002047726175732043656C7369E9
:1005E000757300457230307200436F67756D656CCE
:1005F0006F730047616C696E6861202000546172FE
:07060000746172756761006F
:08060800FF0EE3501B6EEF0E24
:1006100001D0F30EE76EE72E0BEF03F00C0E1A6E0F
:10062000E76AE72E11EF03F01A2E10EF03F01B2EEE
:0606300009EF03F01200C7
:0A063600056A046A100EE76ED89002
:1006400008360936043605360D50045C0E50055840
:1006500005E30D50045E0E50055A082AE72EF0D728
:02066000120086
:0E066200000EF36E00EE00F0080E01D812003C
:10067000EA6002D0EE6AFCD7F350E9601200EE6A3D
:02068000FCD7A5
:0E06820013EE00F023EE00F0F86A019C7DEC10
:0E06900002F05FEC03F019EC00F0FBD7120053
:02069E00C45046
:1006A000176E166AC3501610F36E17C0F4FF1200CF
:0A06B000C250020B01E0010E12001F
:0406BA00C2821200E6
:0206BE00120028
:020000040030CA
:0100010009F5
:010005008179
:00000001FF
